{
  "contractName": "Crowdfunding",
  "abi": [
    {
      "anonymous": false,
      "inputs": [
        {
          "indexed": false,
          "internalType": "address",
          "name": "contractAddress",
          "type": "address"
        },
        {
          "indexed": false,
          "internalType": "address",
          "name": "buyerAddress",
          "type": "address"
        },
        {
          "indexed": false,
          "internalType": "address",
          "name": "projectStarter",
          "type": "address"
        },
        {
          "indexed": false,
          "internalType": "string",
          "name": "projectTitle",
          "type": "string"
        },
        {
          "indexed": false,
          "internalType": "uint256",
          "name": "interestRate",
          "type": "uint256"
        },
        {
          "indexed": false,
          "internalType": "string",
          "name": "projectDesc",
          "type": "string"
        },
        {
          "indexed": false,
          "internalType": "uint256",
          "name": "deadline",
          "type": "uint256"
        },
        {
          "indexed": false,
          "internalType": "uint256",
          "name": "goalAmount",
          "type": "uint256"
        },
        {
          "indexed": false,
          "internalType": "string",
          "name": "projectImage",
          "type": "string"
        }
      ],
      "name": "ProjectStarted",
      "type": "event"
    },
    {
      "constant": false,
      "inputs": [
        {
          "internalType": "string",
          "name": "title",
          "type": "string"
        },
        {
          "internalType": "address payable",
          "name": "buyer",
          "type": "address"
        },
        {
          "internalType": "uint256",
          "name": "interestRate",
          "type": "uint256"
        },
        {
          "internalType": "string",
          "name": "description",
          "type": "string"
        },
        {
          "internalType": "uint256",
          "name": "durationInDays",
          "type": "uint256"
        },
        {
          "internalType": "uint256",
          "name": "amountToRaise",
          "type": "uint256"
        },
        {
          "internalType": "string",
          "name": "image",
          "type": "string"
        }
      ],
      "name": "startProject",
      "outputs": [],
      "payable": false,
      "stateMutability": "nonpayable",
      "type": "function"
    },
    {
      "constant": true,
      "inputs": [],
      "name": "returnAllProjects",
      "outputs": [
        {
          "internalType": "contract Project[]",
          "name": "",
          "type": "address[]"
        }
      ],
      "payable": false,
      "stateMutability": "view",
      "type": "function"
    },
    {
      "constant": true,
      "inputs": [],
      "name": "returnMyOwnProjects",
      "outputs": [
        {
          "internalType": "contract Project[]",
          "name": "",
          "type": "address[]"
        }
      ],
      "payable": false,
      "stateMutability": "view",
      "type": "function"
    }
  ],
  "bytecode": "0x608060405234801561001057600080fd5b50613399806100206000396000f3fe60806040523480156200001157600080fd5b5060043610620000465760003560e01c80630c915b90146200004b5780636306f459146200006b57806385b6e28e146200008d575b600080fd5b620000696004803603620000639190810190620003ef565b620000af565b005b62000075620001f3565b60405162000084919062000763565b60405180910390f35b6200009762000283565b604051620000a6919062000763565b60405180910390f35b6000620000dd620000cd62015180876200031390919063ffffffff16565b426200034b90919063ffffffff16565b90506000338a8d8d8c8c8c888c8c8c604051620000fa9062000366565b620001109b9a9998979695949392919062000600565b604051809103906000f0801580156200012d573d6000803e3d6000fd5b50905060008190806001815401808255809150509060018203906000526020600020016000909192909190916101000a81548173ffffffffffffffffffffffffffffffffffffffff021916908373ffffffffffffffffffffffffffffffffffffffff160217905550507ff1660f88c5d25e18d8adaa5c942d3196055613f0a9562cc48d5171e1f5d4b1c981338c8f8f8e8e8e8a8e8e8e604051620001dd9c9b9a99989796959493929190620006a9565b60405180910390a1505050505050505050505050565b606060008054806020026020016040519081016040528092919081815260200182805480156200027957602002820191906000526020600020905b8160009054906101000a900473ffffffffffffffffffffffffffffffffffffffff1673ffffffffffffffffffffffffffffffffffffffff16815260200190600101908083116200022e575b5050505050905090565b606060008054806020026020016040519081016040528092919081815260200182805480156200030957602002820191906000526020600020905b8160009054906101000a900473ffffffffffffffffffffffffffffffffffffffff1673ffffffffffffffffffffffffffffffffffffffff1681526020019060010190808311620002be575b5050505050905090565b60008083141562000328576000905062000345565b8183029050818382816200033857fe5b04146200034157fe5b8090505b92915050565b60008183019050828110156200035d57fe5b80905092915050565b612a7b80620008dc83390190565b6000813590506200038581620008a7565b92915050565b60008083601f8401126200039e57600080fd5b8235905067ffffffffffffffff811115620003b857600080fd5b602083019150836001820283011115620003d157600080fd5b9250929050565b600081359050620003e981620008c1565b92915050565b60008060008060008060008060008060e08b8d0312156200040f57600080fd5b60008b013567ffffffffffffffff8111156200042a57600080fd5b620004388d828e016200038b565b9a509a505060206200044d8d828e0162000374565b9850506040620004608d828e01620003d8565b97505060608b013567ffffffffffffffff8111156200047e57600080fd5b6200048c8d828e016200038b565b96509650506080620004a18d828e01620003d8565b94505060a0620004b48d828e01620003d8565b93505060c08b013567ffffffffffffffff811115620004d257600080fd5b620004e08d828e016200038b565b92509250509295989b9194979a5092959850565b6000620005028383620005ab565b60208301905092915050565b620005198162000823565b82525050565b6200052a81620007e5565b82525050565b6200053b81620007d1565b82525050565b60006200054e8262000797565b6200055a8185620007af565b9350620005678362000787565b8060005b838110156200059e578151620005828882620004f4565b97506200058f83620007a2565b9250506001810190506200056b565b5085935050505092915050565b620005b68162000837565b82525050565b6000620005ca8385620007c0565b9350620005d983858462000887565b620005e48362000896565b840190509392505050565b620005fa8162000819565b82525050565b60006101008201905062000618600083018e6200051f565b62000627602083018d6200051f565b81810360408301526200063c818b8d620005bc565b90506200064d606083018a620005ef565b81810360808301526200066281888a620005bc565b90506200067360a0830187620005ef565b6200068260c0830186620005ef565b81810360e083015262000697818486620005bc565b90509c9b505050505050505050505050565b600061012082019050620006c1600083018f62000530565b620006d0602083018e6200050e565b620006df604083018d6200050e565b8181036060830152620006f4818b8d620005bc565b905062000705608083018a620005ef565b81810360a08301526200071a81888a620005bc565b90506200072b60c0830187620005ef565b6200073a60e0830186620005ef565b81810361010083015262000750818486620005bc565b90509d9c50505050505050505050505050565b600060208201905081810360008301526200077f818462000541565b905092915050565b6000819050602082019050919050565b600081519050919050565b6000602082019050919050565b600082825260208201905092915050565b600082825260208201905092915050565b6000620007de82620007f9565b9050919050565b6000620007f282620007f9565b9050919050565b600073ffffffffffffffffffffffffffffffffffffffff82169050919050565b6000819050919050565b600062000830826200085f565b9050919050565b600062000844826200084b565b9050919050565b60006200085882620007f9565b9050919050565b60006200086c8262000873565b9050919050565b60006200088082620007f9565b9050919050565b82818337600083830152505050565b6000601f19601f8301169050919050565b620008b281620007e5565b8114620008be57600080fd5b50565b620008cc8162000819565b8114620008d857600080fd5b5056fe60806040526000600a60006101000a81548160ff021916908360028111156200002457fe5b02179055506000600a60016101000a81548160ff021916908360018111156200004957fe5b02179055503480156200005b57600080fd5b5060405162002a7b38038062002a7b8339818101604052620000819190810190620002b1565b876000806101000a81548173ffffffffffffffffffffffffffffffffffffffff021916908373ffffffffffffffffffffffffffffffffffffffff16021790555086600160006101000a81548173ffffffffffffffffffffffffffffffffffffffff021916908373ffffffffffffffffffffffffffffffffffffffff16021790555085600690805190602001906200011a92919062000178565b508460078190555083600890805190602001906200013a92919062000178565b508160028190555082600581905550600060048190555080600990805190602001906200016992919062000178565b505050505050505050620004c2565b828054600181600116156101000203166002900490600052602060002090601f016020900481019282601f10620001bb57805160ff1916838001178555620001ec565b82800160010185558215620001ec579182015b82811115620001eb578251825591602001919060010190620001ce565b5b509050620001fb9190620001ff565b5090565b6200022491905b808211156200022057600081600090555060010162000206565b5090565b90565b60008151905062000238816200048e565b92915050565b600082601f8301126200025057600080fd5b8151620002676200026182620003ed565b620003bf565b915080825260208301602083018583830111156200028457600080fd5b6200029183828462000458565b50505092915050565b600081519050620002ab81620004a8565b92915050565b600080600080600080600080610100898b031215620002cf57600080fd5b6000620002df8b828c0162000227565b9850506020620002f28b828c0162000227565b975050604089015167ffffffffffffffff8111156200031057600080fd5b6200031e8b828c016200023e565b9650506060620003318b828c016200029a565b955050608089015167ffffffffffffffff8111156200034f57600080fd5b6200035d8b828c016200023e565b94505060a0620003708b828c016200029a565b93505060c0620003838b828c016200029a565b92505060e089015167ffffffffffffffff811115620003a157600080fd5b620003af8b828c016200023e565b9150509295985092959890939650565b6000604051905081810181811067ffffffffffffffff82111715620003e357600080fd5b8060405250919050565b600067ffffffffffffffff8211156200040557600080fd5b601f19601f8301169050602081019050919050565b600062000427826200042e565b9050919050565b600073ffffffffffffffffffffffffffffffffffffffff82169050919050565b6000819050919050565b60005b83811015620004785780820151818401526020810190506200045b565b8381111562000488576000848401525b50505050565b62000499816200041a565b8114620004a557600080fd5b50565b620004b3816200044e565b8114620004bf57600080fd5b50565b6125a980620004d26000396000f3fe60806040526004361061014b5760003560e01c80637284e416116100b6578063c19d93fb1161006f578063c19d93fb1461045f578063ce845d1d1461048a578063d7bb99ba146104b5578063f3ccaac0146104bf578063fbbf93a0146104ea578063ff80a3891461051e5761014b565b80637284e4161461037f57806378484552146103aa5780637c3a00fd146103b4578063822eca84146103df57806386f3258614610414578063b19b4e351461042b5761014b565b80634838e705116101085780634838e7051461026d5780634a79d50c146102965780634c4cea5a146102c1578063577bd336146102ec578063704d31e5146103175780637150d8ae146103545761014b565b806302d05d3f146101505780630785001c1461017b5780630cad065a146101a6578063200d2ed2146101da57806328bc72471461020557806342e94c9014610230575b600080fd5b34801561015c57600080fd5b50610165610535565b604051610172919061209d565b60405180910390f35b34801561018757600080fd5b5061019061055a565b60405161019d9190612303565b60405180910390f35b3480156101b257600080fd5b506101bb610560565b6040516101d19a999897969594939291906120b8565b60405180910390f35b3480156101e657600080fd5b506101ef6107f0565b6040516101fc91906122c6565b60405180910390f35b34801561021157600080fd5b5061021a610803565b6040516102279190612303565b60405180910390f35b34801561023c57600080fd5b5061025760048036036102529190810190611df3565b610809565b6040516102649190612303565b60405180910390f35b34801561027957600080fd5b50610294600480360361028f9190810190611e1c565b610821565b005b3480156102a257600080fd5b506102ab610894565b6040516102b891906122e1565b60405180910390f35b3480156102cd57600080fd5b506102d6610932565b6040516102e39190612303565b60405180910390f35b3480156102f857600080fd5b50610301610938565b60405161030e9190612290565b60405180910390f35b34801561032357600080fd5b5061033e60048036036103399190810190611e61565b61094b565b60405161034b9190612290565b60405180910390f35b34801561036057600080fd5b506103696109a9565b604051610376919061209d565b60405180910390f35b34801561038b57600080fd5b506103946109cf565b6040516103a191906122e1565b60405180910390f35b6103b2610a6d565b005b3480156103c057600080fd5b506103c9610b23565b6040516103d69190612303565b60405180910390f35b3480156103eb57600080fd5b506103f4610b29565b60405161040b9b9a99989796959493929190612169565b60405180910390f35b34801561042057600080fd5b50610429610e69565b005b34801561043757600080fd5b50610440610f27565b6040516104569a999897969594939291906120b8565b60405180910390f35b34801561046b57600080fd5b50610474611211565b60405161048191906122ab565b60405180910390f35b34801561049657600080fd5b5061049f611224565b6040516104ac9190612303565b60405180910390f35b6104bd61122a565b005b3480156104cb57600080fd5b506104d46113bb565b6040516104e191906122e1565b60405180910390f35b3480156104f657600080fd5b506104ff611459565b6040516105159a999897969594939291906120b8565b60405180910390f35b34801561052a57600080fd5b5061053361170f565b005b6000809054906101000a900473ffffffffffffffffffffffffffffffffffffffff1681565b60025481565b60006060806000806000806000806060600180600181111561057e57fe5b600a60019054906101000a900460ff16600181111561059957fe5b146105a357600080fd5b6000809054906101000a900473ffffffffffffffffffffffffffffffffffffffff169a5060068054600181600116156101000203166002900480601f01602080910402602001604051908101604052809291908181526020018280546001816001161561010002031660029004801561065d5780601f106106325761010080835404028352916020019161065d565b820191906000526020600020905b81548152906001019060200180831161064057829003601f168201915b5050505050995060088054600181600116156101000203166002900480601f0160208091040260200160405190810160405280929190818152602001828054600181600116156101000203166002900480156106fa5780601f106106cf576101008083540402835291602001916106fa565b820191906000526020600020905b8154815290600101906020018083116106dd57829003601f168201915b505050505098506005549750600a60009054906101000a900460ff169650600a60019054906101000a900460ff169550600a60029054906101000a900460ff1694506004549350600254925060098054600181600116156101000203166002900480601f0160208091040260200160405190810160405280929190818152602001828054600181600116156101000203166002900480156107dc5780601f106107b1576101008083540402835291602001916107dc565b820191906000526020600020905b8154815290600101906020018083116107bf57829003601f168201915b505050505091505090919293949596979899565b600a60019054906101000a900460ff1681565b60055481565b600c6020528060005260406000206000915090505481565b61086e82828080601f016020809104026020016040519081016040528093929190818152602001838380828437600081840152601f19601f8201169050808301925050505050505061094b565b600a60026101000a81548160ff0219169083600181111561088b57fe5b02179055505050565b60068054600181600116156101000203166002900480601f01602080910402602001604051908101604052809291908181526020018280546001816001161561010002031660029004801561092a5780601f106108ff5761010080835404028352916020019161092a565b820191906000526020600020905b81548152906001019060200180831161090d57829003601f168201915b505050505081565b60035481565b600a60029054906101000a900460ff1681565b600060405161095990612088565b60405180910390208280519060200120141561097857600090506109a4565b60405161098490612073565b6040518091039020828051906020012014156109a357600190506109a4565b5b919050565b600160009054906101000a900473ffffffffffffffffffffffffffffffffffffffff1681565b60088054600181600116156101000203166002900480601f016020809104026020016040519081016040528092919081815260200182805460018160011615610100020316600290048015610a655780601f10610a3a57610100808354040283529160200191610a65565b820191906000526020600020905b815481529060010190602001808311610a4857829003601f168201915b505050505081565b6001806001811115610a7b57fe5b600a60029054906101000a900460ff166001811115610a9657fe5b14610aa057600080fd5b4760048190555060006004541415610b17577f161819d89a5ac86cf9c1c0da3b304260ead8ddd1e537f89877e5c5bdc13e8f61600160009054906101000a900473ffffffffffffffffffffffffffffffffffffffff16600254604051610b07929190612230565b60405180910390a1476004819055505b610b1f611769565b5050565b60075481565b60006060806000806000806000806060806000809054906101000a900473ffffffffffffffffffffffffffffffffffffffff1673ffffffffffffffffffffffffffffffffffffffff163373ffffffffffffffffffffffffffffffffffffffff1614610b9357600080fd5b6000809054906101000a900473ffffffffffffffffffffffffffffffffffffffff169a5060068054600181600116156101000203166002900480601f016020809104026020016040519081016040528092919081815260200182805460018160011615610100020316600290048015610c4d5780601f10610c2257610100808354040283529160200191610c4d565b820191906000526020600020905b815481529060010190602001808311610c3057829003601f168201915b5050505050995060088054600181600116156101000203166002900480601f016020809104026020016040519081016040528092919081815260200182805460018160011615610100020316600290048015610cea5780601f10610cbf57610100808354040283529160200191610cea565b820191906000526020600020905b815481529060010190602001808311610ccd57829003601f168201915b505050505098506005549750600a60009054906101000a900460ff169650600a60019054906101000a900460ff169550600a60029054906101000a900460ff1694506004549350600254925060098054600181600116156101000203166002900480601f016020809104026020016040519081016040528092919081815260200182805460018160011615610100020316600290048015610dcc5780601f10610da157610100808354040283529160200191610dcc565b820191906000526020600020905b815481529060010190602001808311610daf57829003601f168201915b50505050509150600b805480602002602001604051908101604052809291908181526020018280548015610e5557602002820191906000526020600020905b8160009054906101000a900473ffffffffffffffffffffffffffffffffffffffff1673ffffffffffffffffffffffffffffffffffffffff1681526020019060010190808311610e0b575b50505050509050909192939495969798999a565b6000600290506000606460506002540281610e8057fe5b0490508060045410610eec576002600a60006101000a81548160ff02191690836002811115610eab57fe5b02179055506000600a60026101000a81548160ff02191690836001811115610ecf57fe5b0217905550600082600454039050610ee5611bee565b5050610f1c565b600554421115610f1b576001600a60006101000a81548160ff02191690836002811115610f1557fe5b02179055505b5b426003819055505050565b60006060806000806000806000806060600160009054906101000a900473ffffffffffffffffffffffffffffffffffffffff1673ffffffffffffffffffffffffffffffffffffffff163373ffffffffffffffffffffffffffffffffffffffff1614610f9157600080fd5b6001806001811115610f9f57fe5b600a60029054906101000a900460ff166001811115610fba57fe5b14610fc457600080fd5b6000809054906101000a900473ffffffffffffffffffffffffffffffffffffffff169a5060068054600181600116156101000203166002900480601f01602080910402602001604051908101604052809291908181526020018280546001816001161561010002031660029004801561107e5780601f106110535761010080835404028352916020019161107e565b820191906000526020600020905b81548152906001019060200180831161106157829003601f168201915b5050505050995060088054600181600116156101000203166002900480601f01602080910402602001604051908101604052809291908181526020018280546001816001161561010002031660029004801561111b5780601f106110f05761010080835404028352916020019161111b565b820191906000526020600020905b8154815290600101906020018083116110fe57829003601f168201915b505050505098506005549750600a60009054906101000a900460ff169650600a60019054906101000a900460ff169550600a60029054906101000a900460ff1694506004549350600254925060098054600181600116156101000203166002900480601f0160208091040260200160405190810160405280929190818152602001828054600181600116156101000203166002900480156111fd5780601f106111d2576101008083540402835291602001916111fd565b820191906000526020600020905b8154815290600101906020018083116111e057829003601f168201915b505050505091505090919293949596979899565b600a60009054906101000a900460ff1681565b60045481565b600080600281111561123857fe5b600a60009054906101000a900460ff16600281111561125357fe5b1461125d57600080fd5b6112af34600c60003373ffffffffffffffffffffffffffffffffffffffff1673ffffffffffffffffffffffffffffffffffffffff16815260200190815260200160002054611d2690919063ffffffff16565b600c60003373ffffffffffffffffffffffffffffffffffffffff1673ffffffffffffffffffffffffffffffffffffffff16815260200190815260200160002081905550600b3390806001815401808255809150509060018203906000526020600020016000909192909190916101000a81548173ffffffffffffffffffffffffffffffffffffffff021916908373ffffffffffffffffffffffffffffffffffffffff1602179055505061136d34600454611d2690919063ffffffff16565b6004819055507f14e4ce836d81578984751e135594fc5398e6500bb96c9eb60a333d53e6d2f64b33346004546040516113a893929190612259565b60405180910390a16113b8610e69565b50565b60098054600181600116156101000203166002900480601f0160208091040260200160405190810160405280929190818152602001828054600181600116156101000203166002900480156114515780601f1061142657610100808354040283529160200191611451565b820191906000526020600020905b81548152906001019060200180831161143457829003601f168201915b505050505081565b60006060806000806000806000806060600160009054906101000a900473ffffffffffffffffffffffffffffffffffffffff1673ffffffffffffffffffffffffffffffffffffffff163373ffffffffffffffffffffffffffffffffffffffff16146114c357600080fd5b6000809054906101000a900473ffffffffffffffffffffffffffffffffffffffff16995060068054600181600116156101000203166002900480601f01602080910402602001604051908101604052809291908181526020018280546001816001161561010002031660029004801561157d5780601f106115525761010080835404028352916020019161157d565b820191906000526020600020905b81548152906001019060200180831161156057829003601f168201915b5050505050985060088054600181600116156101000203166002900480601f01602080910402602001604051908101604052809291908181526020018280546001816001161561010002031660029004801561161a5780601f106115ef5761010080835404028352916020019161161a565b820191906000526020600020905b8154815290600101906020018083116115fd57829003601f168201915b505050505097506005549650600a60009054906101000a900460ff169550600a60019054906101000a900460ff169450600a60029054906101000a900460ff1693506004549250600254915060098054600181600116156101000203166002900480601f0160208091040260200160405190810160405280929190818152602001828054600181600116156101000203166002900480156116fc5780601f106116d1576101008083540402835291602001916116fc565b820191906000526020600020905b8154815290600101906020018083116116df57829003601f168201915b5050505050905090919293949596979899565b600080600181111561171d57fe5b600a60019054906101000a900460ff16600181111561173857fe5b1461174257600080fd5b6001600a60016101000a81548160ff0219169083600181111561176157fe5b021790555050565b6000600180600181111561177957fe5b600a60029054906101000a900460ff16600181111561179457fe5b1461179e57600080fd5b600061016860055460075402816117b157fe5b049050600080600090505b600b80549050811015611bce576000600c6000600b84815481106117dc57fe5b9060005260206000200160009054906101000a900473ffffffffffffffffffffffffffffffffffffffff1673ffffffffffffffffffffffffffffffffffffffff1673ffffffffffffffffffffffffffffffffffffffff168152602001908152602001600020541161184c57600080fd5b600c6000600b838154811061185d57fe5b9060005260206000200160009054906101000a900473ffffffffffffffffffffffffffffffffffffffff1673ffffffffffffffffffffffffffffffffffffffff1673ffffffffffffffffffffffffffffffffffffffff1681526020019081526020016000205460045410156118d157600080fd5b6000600c6000600b84815481106118e457fe5b9060005260206000200160009054906101000a900473ffffffffffffffffffffffffffffffffffffffff1673ffffffffffffffffffffffffffffffffffffffff1673ffffffffffffffffffffffffffffffffffffffff16815260200190815260200160002054905060008460646050600254028161195e57fe5b04600c6000600b878154811061197057fe5b9060005260206000200160009054906101000a900473ffffffffffffffffffffffffffffffffffffffff1673ffffffffffffffffffffffffffffffffffffffff1673ffffffffffffffffffffffffffffffffffffffff16815260200190815260200160002054816119dd57fe5b040290506000600c6000600b86815481106119f457fe5b9060005260206000200160009054906101000a900473ffffffffffffffffffffffffffffffffffffffff1673ffffffffffffffffffffffffffffffffffffffff1673ffffffffffffffffffffffffffffffffffffffff16815260200190815260200160002081905550600b8381548110611a6a57fe5b9060005260206000200160009054906101000a900473ffffffffffffffffffffffffffffffffffffffff1673ffffffffffffffffffffffffffffffffffffffff166108fc8284019081150290604051600060405180830381858888f1935050505015611b56577f8d2e6c59cb53bcde40198040d8a285adec40a18b98b63b68043eeceea0ec07a1600b8481548110611afe57fe5b9060005260206000200160009054906101000a900473ffffffffffffffffffffffffffffffffffffffff16828401604051611b3a929190612230565b60405180910390a1816004540360048190555060019350611b5b565b600093505b600060045410611bbf576000809054906101000a900473ffffffffffffffffffffffffffffffffffffffff1673ffffffffffffffffffffffffffffffffffffffff166108fc6004549081150290604051600060405180830381858888f19350505050505b505080806001019150506117bc565b506001811415611be357600193505050611bea565b6000935050505b5090565b60006002806002811115611bfe57fe5b600a60009054906101000a900460ff166002811115611c1957fe5b14611c2357600080fd5b6000600454905060006004819055506000809054906101000a900473ffffffffffffffffffffffffffffffffffffffff1673ffffffffffffffffffffffffffffffffffffffff166108fc829081150290604051600060405180830381858888f1935050505015611cf1577f14f433c13badc2239830ab3bb19e75dec63d39f851363844cc4e4650d0c9b6016000809054906101000a900473ffffffffffffffffffffffffffffffffffffffff1682604051611cdf929190612230565b60405180910390a16001925050611d22565b806004819055506002600a60006101000a81548160ff02191690836002811115611d1757fe5b021790555060009250505b5090565b6000818301905082811015611d3757fe5b80905092915050565b600081359050611d4f8161254f565b92915050565b60008083601f840112611d6757600080fd5b8235905067ffffffffffffffff811115611d8057600080fd5b602083019150836001820283011115611d9857600080fd5b9250929050565b600082601f830112611db057600080fd5b8135611dc3611dbe8261234b565b61231e565b91508082526020830160208301858383011115611ddf57600080fd5b611dea8382846124d5565b50505092915050565b600060208284031215611e0557600080fd5b6000611e1384828501611d40565b91505092915050565b60008060208385031215611e2f57600080fd5b600083013567ffffffffffffffff811115611e4957600080fd5b611e5585828601611d55565b92509250509250929050565b600060208284031215611e7357600080fd5b600082013567ffffffffffffffff811115611e8d57600080fd5b611e9984828501611d9f565b91505092915050565b6000611eae8383611ec9565b60208301905092915050565b611ec381612469565b82525050565b611ed2816123f4565b82525050565b611ee1816123f4565b82525050565b6000611ef282612387565b611efc81856123b5565b9350611f0783612377565b8060005b83811015611f38578151611f1f8882611ea2565b9750611f2a836123a8565b925050600181019050611f0b565b5085935050505092915050565b611f4e8161247b565b82525050565b611f5d8161248d565b82525050565b611f6c8161249f565b82525050565b6000611f7d8261239d565b611f8781856123c6565b9350611f978185602086016124e4565b611fa081612517565b840191505092915050565b6000611fb682612392565b611fc081856123c6565b9350611fd08185602086016124e4565b611fd981612517565b840191505092915050565b6000611ff16006836123d7565b91507f46696e69736800000000000000000000000000000000000000000000000000006000830152600682019050919050565b60006120316007836123d7565b91507f53746172746564000000000000000000000000000000000000000000000000006000830152600782019050919050565b61206d8161245f565b82525050565b600061207e82611fe4565b9150819050919050565b600061209382612024565b9150819050919050565b60006020820190506120b26000830184611ed8565b92915050565b6000610140820190506120ce600083018d611ed8565b81810360208301526120e0818c611f72565b905081810360408301526120f4818b611f72565b9050612103606083018a612064565b6121106080830189611f54565b61211d60a0830188611f63565b61212a60c0830187611f45565b61213760e0830186612064565b612145610100830185612064565b8181036101208301526121588184611f72565b90509b9a5050505050505050505050565b60006101608201905061217f600083018e611ed8565b8181036020830152612191818d611f72565b905081810360408301526121a5818c611f72565b90506121b4606083018b612064565b6121c1608083018a611f54565b6121ce60a0830189611f63565b6121db60c0830188611f45565b6121e860e0830187612064565b6121f6610100830186612064565b8181036101208301526122098185611f72565b905081810361014083015261221e8184611ee7565b90509c9b505050505050505050505050565b60006040820190506122456000830185611eba565b6122526020830184612064565b9392505050565b600060608201905061226e6000830186611eba565b61227b6020830185612064565b6122886040830184612064565b949350505050565b60006020820190506122a56000830184611f45565b92915050565b60006020820190506122c06000830184611f54565b92915050565b60006020820190506122db6000830184611f63565b92915050565b600060208201905081810360008301526122fb8184611fab565b905092915050565b60006020820190506123186000830184612064565b92915050565b6000604051905081810181811067ffffffffffffffff8211171561234157600080fd5b8060405250919050565b600067ffffffffffffffff82111561236257600080fd5b601f19601f8301169050602081019050919050565b6000819050602082019050919050565b600081519050919050565b600081519050919050565b600081519050919050565b6000602082019050919050565b600082825260208201905092915050565b600082825260208201905092915050565b600081905092915050565b60006123ed8261243f565b9050919050565b60006123ff8261243f565b9050919050565b600081905061241482612528565b919050565b600081905061242782612535565b919050565b600081905061243a82612542565b919050565b600073ffffffffffffffffffffffffffffffffffffffff82169050919050565b6000819050919050565b6000612474826124b1565b9050919050565b600061248682612406565b9050919050565b600061249882612419565b9050919050565b60006124aa8261242c565b9050919050565b60006124bc826124c3565b9050919050565b60006124ce8261243f565b9050919050565b82818337600083830152505050565b60005b838110156125025780820151818401526020810190506124e7565b83811115612511576000848401525b50505050565b6000601f19601f8301169050919050565b6002811061253257fe5b50565b6003811061253f57fe5b50565b6002811061254c57fe5b50565b612558816123e2565b811461256357600080fd5b5056fea365627a7a72315820057343a63463455281ac546372b5758cf7a60d5ea173d080cadecad2242aa0076c6578706572696d656e74616cf564736f6c63430005100040a365627a7a72315820a036328ad0cfbe6f8cc38025a46754310c900c9d6d511f4aff8093d352fecd5c6c6578706572696d656e74616cf564736f6c63430005100040",
  "source": "pragma experimental ABIEncoderV2;\nimport \"./SafeMath.sol\";\n\ncontract Crowdfunding {\n    using SafeMath for uint256;\n\n    // List of existing projects\n    Project[] private projects;\n\n    // Event that will be emitted whenever a new project is started\n    event ProjectStarted(\n        address contractAddress,\n        address buyerAddress,\n        address projectStarter,\n        string projectTitle,\n        uint256 interestRate,\n        string projectDesc,\n        uint256 deadline,\n        uint256 goalAmount,\n        string projectImage\n    );\n\n    function startProject(\n        string calldata title,\n        address payable buyer,\n        uint256 interestRate,\n        string calldata description,\n        uint256 durationInDays,\n        uint256 amountToRaise,\n        string calldata image\n    ) external {\n        uint256 workUntil = now.add(durationInDays.mul(1 days));\n        // uint256 _interestRate_bp = interestRate*100;\n        Project newProject = new Project(\n            msg.sender,\n            buyer,\n            title,\n            interestRate,\n            description,\n            workUntil,\n            amountToRaise,\n            image\n        );\n        projects.push(newProject);\n        emit ProjectStarted(\n            address(newProject),\n            msg.sender,\n            buyer,\n            title,\n            interestRate,\n            description,\n            workUntil,\n            amountToRaise,\n            image\n        );\n    }\n\n    function returnAllProjects() external view returns (Project[] memory) {\n        return projects;\n    }\n\n    function returnMyOwnProjects() external view returns (Project[] memory) {\n        return projects;\n    }\n}\n\ncontract Project {\n    using SafeMath for uint256;\n\n    // Data structures\n    enum State {\n        Fundraising,\n        Expired,\n        Successful\n    }\n\n    enum Status {\n        NotVerifiedByBuyer,\n        VerifiedByBuyer\n    }\n\n    enum Progress {\n        Started,\n        Finish\n    }\n\n    event progressChanged(string _e);\n\n    address payable public creator;\n    address payable public buyer;\n    uint256 public amountGoal; // required to reach at least this much, else everyone gets refund\n    uint256 public completeAt;\n    uint256 public currentBalance;\n    uint256 public workBy;\n    string public title;\n    uint256 public interestRate;\n    string public description;\n    string public image;\n    State public state = State.Fundraising; // initialize on create\n    Status public status = Status.NotVerifiedByBuyer;\n    Progress public progress;\n    address payable[] investors;\n    // Progress public progress = Progress.Non;\n\n    mapping(address => uint256) public contributions;\n\n    // Modifier to check current state\n    modifier inState(State _state) {\n        require(state == _state);\n        _;\n    }\n\n    modifier inStatus(Status _status) {\n        require(status == _status);\n        _;\n    }\n\n    modifier progressState(Progress _progress) {\n        require(progress == _progress);\n        _;\n    }\n\n    modifier isBuyer() {\n        require(msg.sender == buyer);\n        _;\n    }\n\n    modifier isCreator() {\n        require(msg.sender == creator);\n        _;\n    }\n\n    constructor(\n        address payable projectStarter,\n        address payable projectBuyer,\n        string memory projectTitle,\n        uint256 _interestRate,\n        string memory projectDesc,\n        uint256 workingDeadline,\n        uint256 goalAmount,\n        string memory projectImage\n    ) public {\n        creator = projectStarter;\n        buyer = projectBuyer;\n        title = projectTitle;\n        interestRate = _interestRate;\n        description = projectDesc;\n        amountGoal = goalAmount;\n        workBy = workingDeadline;\n        currentBalance = 0;\n        image = projectImage;\n    }\n\n    event fundingReceived(\n        address contributer,\n        uint256 amount,\n        uint256 cuurentTotal\n    );\n\n    event CreatorPaid(address recipient, uint256 value);\n\n    event InvestorPaid(address recipient, uint256 value);\n\n    event BuyerPaysToContract(address sender, uint256 value);\n\n    function getMyEnumValueByKey(string memory myEnum)\n        public\n        returns (Progress)\n    {\n        if (keccak256(bytes(myEnum)) == keccak256(\"Started\"))\n            return Progress.Started;\n        if (keccak256(bytes(myEnum)) == keccak256(\"Finish\"))\n            return Progress.Finish;\n    }\n\n    function setProgressState(string calldata _e) external {\n        progress = getMyEnumValueByKey(_e);\n    }\n\n    function getDetailsBorrower()\n        public\n        view\n        isCreator\n        returns (\n            address payable projectStarter,\n            string memory projectTitle,\n            // uint256 interestRate,\n            string memory projectDesc,\n            uint256 deadline,\n            State currentState,\n            Status currentStatus,\n            Progress currentProgress,\n            uint256 currentAmount,\n            uint256 goalAmount,\n            string memory projectImage,\n            address payable[] memory _investors\n        )\n    {\n        projectStarter = creator;\n        projectTitle = title;\n        // interestRate = interestRate;\n        projectDesc = description;\n        deadline = workBy;\n        currentState = state;\n        currentStatus = status;\n        currentProgress = progress;\n        currentAmount = currentBalance;\n        goalAmount = amountGoal;\n        projectImage = image;\n        _investors = investors;\n    }\n\n    function getDetails()\n        public\n        view\n        isBuyer\n        returns (\n            address payable projectStarter,\n            string memory projectTitle,\n            // uint256 interestRate,\n            string memory projectDesc,\n            uint256 deadline,\n            State currentState,\n            Status currentStatus,\n            Progress currentProgress,\n            uint256 currentAmount,\n            uint256 goalAmount,\n            string memory projectImage\n        )\n    {\n        projectStarter = creator;\n        projectTitle = title;\n        // interestRate = interestRate;\n        projectDesc = description;\n        deadline = workBy;\n        currentState = state;\n        currentStatus = status;\n        currentProgress = progress;\n        currentAmount = currentBalance;\n        goalAmount = amountGoal;\n        projectImage = image;\n    }\n\n    function getDetailsForBuyerPayment()\n        public\n        view\n        isBuyer\n        progressState(Progress.Finish)\n        returns (\n            address payable projectStarter,\n            string memory projectTitle,\n            string memory projectDesc,\n            uint256 deadline,\n            State currentState,\n            Status currentStatus,\n            Progress currentProgress,\n            uint256 currentAmount,\n            uint256 goalAmount,\n            string memory projectImage\n        )\n    {\n        projectStarter = creator;\n        projectTitle = title;\n        projectDesc = description;\n        deadline = workBy;\n        currentState = state;\n        currentStatus = status;\n        currentProgress = progress;\n        currentAmount = currentBalance;\n        goalAmount = amountGoal;\n        projectImage = image;\n    }\n\n    function getDetailsLender()\n        public\n        view\n        inStatus(Status.VerifiedByBuyer)\n        returns (\n            address payable projectStarter,\n            string memory projectTitle,\n            // uint256 interestRate,\n            string memory projectDesc,\n            uint256 deadline,\n            State currentState,\n            Status currentStatus,\n            Progress currentProgress,\n            uint256 currentAmount,\n            uint256 goalAmount,\n            string memory projectImage\n        )\n    {\n        projectStarter = creator;\n        projectTitle = title;\n        // interestRate = interestRate;\n        projectDesc = description;\n        deadline = workBy;\n        currentState = state;\n        currentStatus = status;\n        currentProgress = progress;\n        currentAmount = currentBalance;\n        goalAmount = amountGoal;\n        projectImage = image;\n    }\n\n    function contribute() external payable inState(State.Fundraising) {\n        contributions[msg.sender] = contributions[msg.sender].add(msg.value);\n        investors.push(msg.sender);\n        currentBalance = currentBalance.add(msg.value);\n        emit fundingReceived(msg.sender, msg.value, currentBalance);\n        checkIfFundingCompleteOrExpired();\n    }\n\n    function approveByBuyer() public inStatus(Status.NotVerifiedByBuyer) {\n        status = Status.VerifiedByBuyer;\n    }\n\n    function checkIfFundingCompleteOrExpired() public {\n        uint256 platformFees = 2;\n        // uint interestt = (interestRate * duration) / 360;\n        // moneyNeeded = (amountGoal*100) - interestt;\n        uint256 moneyNeeded = (amountGoal * 80) / 100;\n        if ((currentBalance) >= moneyNeeded) {\n            state = State.Successful;\n            progress = Progress.Started;\n            uint256 currentBalance = currentBalance - platformFees;\n            payOut();\n        } else if (block.timestamp > workBy) {\n            state = State.Expired;\n        }\n        completeAt = block.timestamp;\n    }\n\n    // paying from investors to the borrower\n    function payOut() internal inState(State.Successful) returns (bool) {\n        uint256 totalRaised = currentBalance;\n\n        currentBalance = 0;\n\n        if (creator.send(totalRaised)) {\n            emit CreatorPaid(creator, totalRaised);\n            return true;\n        } else {\n            currentBalance = totalRaised;\n            state = State.Successful;\n        }\n\n        return false;\n    }\n\n    // The buyer will send an amount of money to the contract\n    function buyerPay() external payable progressState(Progress.Finish) {\n        currentBalance = address(this).balance;\n        if (currentBalance == 0) {\n            emit BuyerPaysToContract(buyer, amountGoal);\n            currentBalance = address(this).balance;\n        }\n        payingInvestors();\n    }\n\n    // The investors are paid\n    function payingInvestors()\n        internal\n        progressState(Progress.Finish)\n        returns (bool)\n    {\n        uint256 workInterest = (interestRate * workBy) / 360;\n        uint256 x;\n        for (uint256 i = 0; i < investors.length; i++) {\n            require(contributions[investors[i]] > 0);\n            require(currentBalance >= contributions[investors[i]]);\n            uint256 investedmoney = contributions[investors[i]];\n            uint256 investorInterest = (contributions[investors[i]] /\n                ((amountGoal * 80) / 100)) * workInterest;\n            contributions[investors[i]] = 0;\n\n            if (investors[i].send(investedmoney + investorInterest)) {\n                emit InvestorPaid(\n                    investors[i],\n                    investedmoney + investorInterest\n                );\n                currentBalance = currentBalance - investedmoney;\n                x = 1;\n            } else {\n                x = 0;\n            }\n\n            if (currentBalance >= 0) {\n                creator.send(currentBalance);\n            }\n        }\n        if (x == 1) {\n            return true;\n        }\n        return false;\n    }\n}\n",
  "sourcePath": "C:\\Users\\AR01530\\Desktop\\test\\Crowdfunding-Project-projects-creation\\contracts\\Crowdfunding.sol",
  "compiler": {
    "name": "solc",
    "version": "0.5.16+commit.9c3226ce.Emscripten.clang"
  },
  "schemaVersion": "3.4.3",
  "updatedAt": "2022-01-22T18:40:08.382Z",
  "networkType": "ethereum",
  "devdoc": {
    "methods": {}
  },
  "userdoc": {
    "methods": {}
  }
}